S025000049522073656E736F7220746F20646574656374206F62737461636C65732E737265632E
S11300000C942A000C943F000C943F000C943F0085
S11300100C943F000C943F000C943F000C943F0060
S11300200C943F000C943F000C943F000C943F0050
S11300300C943F000C943F000C943F000C943F0040
S11300400C943F000C943F000C943F000C943F0030
S11300500C943F0011241FBECFE5D8E0DEBFCDBF16
S113006010E0A0E6B0E0EEE1F5E002C005900D92EC
S1130070A038B107D9F70E9489010C948D020C9421
S11300800000823419F118F4813439F0089583346E
S1130090B1F1843409F44CC00895413059F42AB3C1
S11300A081E090E002C0880F991F6A95E2F7822BE5
S11300B08ABB08952AB381E090E002C0880F991F9B
S11300C06A95E2F7809582238ABB0895413059F4FA
S11300D027B381E090E002C0880F991F6A95E2F788
S11300E0822B87BB089527B381E090E002C0880F7C
S11300F0991F6A95E2F78095822387BB0895413062
S113010059F424B381E090E002C0880F991F6A95E6
S1130110E2F7822B84BB089524B381E090E002C00F
S1130120880F991F6A95E2F78095822384BB08950E
S1130130413059F421B381E090E002C0880F991F47
S11301406A95E2F7822B81BB089521B381E090E0A8
S113015002C0880F991F6A95E2F78095822381BBBC
S11301600895823419F118F4813439F008958334F0
S1130170B1F1843409F44CC00895413059F42BB3DF
S113018081E090E002C0880F991F6A95E2F7822B04
S11301908BBB08952BB381E090E002C0880F991FB8
S11301A06A95E2F7809582238BBB0895413059F418
S11301B028B381E090E002C0880F991F6A95E2F7A6
S11301C0822B88BB089528B381E090E002C0880F99
S11301D0991F6A95E2F78095822388BB0895413080
S11301E059F425B381E090E002C0880F991F6A9505
S11301F0E2F7822B85BB089525B381E090E002C02D
S1130200880F991F6A95E2F78095822385BB08952C
S1130210413059F422B381E090E002C0880F991F65
S11302206A95E2F7822B82BB089522B381E090E0C5
S113023002C0880F991F6A95E2F78095822382BBDA
S113024008958234D9F018F4813431F04DC08334E8
S113025039F18434B9F148C029B381E090E0062E25
S113026002C0880F991F0A94E2F730E08223932397
S113027002C0959587956A95E2F7089526B381E0C3
S113028090E0062E02C0880F991F0A94E2F730E02E
S11302908223932302C0959587956A95E2F7089582
S11302A023B381E090E0062E02C0880F991F0A94C0
S11302B0E2F730E08223932302C0959587956A95EF
S11302C0E2F7089520B381E090E0062E02C0880F83
S11302D0991F0A94E2F730E08223932302C0959594
S11302E087956A95E2F7089580E00895823459F07D
S11302F018F4813431F00895833439F0843439F0BA
S113030008956BBB089568BB089565BB089562BBEF
S113031008950E94D90160E084E40E9421018130A3
S113032079F40E94640280E690E00E94550261E044
S113033082E00E946E0289E690E00E94550206C0A7
S11303400E94640282E790E00E9455022FEF84E34A
S11303509CE0215080409040E1F700C00000DBCFDA
S113036041E060E082E40E94B1008FE99FE00197E0
S1130370F1F700C0000040E060E082E40E94B100B8
S11303808FE99FE00197F1F700C000000895682FFE
S113039081E40E94760140E061E082E40E94B100C1
S11303A00E94B0018FEC97E00197F1F700C00000C4
S11303B008952FEF81EE94E0215080409040E1F7C2
S11303C000C0000041E060E081E40E94410041E09F
S11303D061E081E40E94410041E062E081E40E9426
S11303E0410041E063E081E40E94410041E064E0B7
S11303F081E40E94410041E065E081E40E94410003
S113040041E066E081E40E94410041E067E081E46C
S11304100E94410041E060E082E40E94410041E02A
S113042062E082E40E94410041E061E082E40E94D3
S1130430410040E062E082E40E94B10088E30E944F
S1130440C7018FEC97E00197F1F700C000008EE040
S11304500E94C7018FEC97E00197F1F700C00000FC
S113046081E00E94C7018FE19EE40197F1F700C08B
S1130470000086E00E94C7018FEC97E00197F1F736
S113048000C000000895682F81E40E94760141E0D5
S113049061E082E40E94B1000E94B0018FEC97E019
S11304A00197F1F700C000000895CF93DF93EC01AA
S11304B08881882331F021960E9443028991811119
S11304C0FBCFDF91CF91089581E00E94C7018FE1B6
S11304D09EE40197F1F700C0000008959FEF980F84
S11304E0923070F49FEF960F903160F4813019F4DC
S11304F02FE7260F08C0823031F42FEB260F03C0FC
S113050020E801C020E8822F0E94C7018FEC97E009
S11105100197F1F700C000000895F894FFCFA2
S113051E7468657265206973006F62737461636CCD
S113052E65004E6F206F62737461636C65730000B7
S9030000FC
